:100000008A15AD2EFF3FFF3FFF00030E830103174C
:10001000CE000408CD000A08CF008A017108E00074
:100020007008DF00CA01CB01CC010313081C1B2898
:1000300001308316AB008312881C212801308316FF
:10004000AC0003138316AD0A0319AE0A0319AF0AF5
:100050000319B00AB10A0319B20A0319B30A031942
:10006000B40AB50A0319B60A0319B70A0319B80A7C
:10007000B90A0319BA0A0319BB0A0319BC0ABD0A53
:100080000319BE0A0319BF0A0319C00AC10A0319DA
:10009000C20A0319C30A0319C40AA018532801305D
:1000A00003178312CA00031383164508031D65282E
:1000B0004608031D65284708480449044A04031DEF
:1000C0006528013003178312CA00031383164508FD
:1000D000031D81284608031D81284A084E02031D7E
:1000E0007B2849084D02031D7B2848084C02031D4C
:1000F0007B2847084B02031C812801300317831219
:10010000CA0003138316450803198E282B08013AE9
:10011000031D8E28013003178312CA0003138316B0
:10012000460803199B282C08013A031D9B2801301F
:1001300003178312CA0003138316A118A3280130E2
:1001400003178312CB00031383164F08031DB52832
:100150005008031DB5285108520453045404031DCC
:10016000B528013003178312CB00031383164F0801
:10017000031DD1285008031DD12854085802031D1F
:10018000CB2853085702031DCB2852085602031DE3
:10019000CB2851085502031CD128013003178312C4
:1001A000CB00031383164F080319DE282B08013AEE
:1001B000031DDE28013003178312CB0003138316BF
:1001C00050080319EB282C08013A031DEB280130D5
:1001D00003178312CB000313831203138718F3282A
:1001E00001300317CC000313831603138316590839
:1001F000031D07295A08031D07295B085C045D04D9
:100200005E04031D0729013003178312CC0003137A
:1002100083165908031D23295A08031D23295E0844
:100220006202031D1D295D086102031D1D295C0872
:100230006002031D1D295B085F02031C2329013096
:1002400003178312CC0003138316590803193029AE
:100250002B08013A031D3029013003178312CC000B
:10026000031383165A0803193D292C08013A031D6C
:100270003D29013003178312CC000313831666084F
:100280003C02031D4D2965083B02031D4D296408EE
:100290003A02031D4D2963083902031C82296E08A6
:1002A0006A02031D5D296D086902031D5D296C0842
:1002B0006802031D5D296B08670203186629E70AB7
:1002C0000319E80A0319E90A0319EA0A6A086E021F
:1002D000031D742969086D02031D742968086C02E6
:1002E000031D742967086B0203187E290130E70299
:1002F000031CE802031CE902031CEA02B901BA016B
:10030000BB01BC01031783121308031383164002B9
:10031000031DA029031783121208031383163F023B
:10032000031DA029031783121108031383163E022D
:10033000031DA029031783121008031383163D021F
:10034000031CD929031783121B081702031DB229A6
:100350001A081602031DB22919081502031DB22935
:10036000180814020318BB29940A0319950A0319E3
:10037000960A0319970A17081B02031DC9291608B4
:100380001A02031DC92915081902031DC9291408D9
:1003900018020318D32901309402031C9502031C90
:1003A0009602031C970203138316BD01BE01BF0111
:1003B000C001031783121F08031383164402031D91
:1003C000F729031783121E08031383164302031D24
:1003D000F729031783121D08031383164202031D16
:1003E000F729031783121C08031383164102031C09
:1003F000302A0317831227082302031D092A26081F
:100400002202031D092A25082102031D092A2408A6
:1004100020020318122AA00A0319A10A0319A20A2A
:100420000319A30A23082702031D202A22082602F3
:10043000031D202A21082502031D202A200824024A
:1004400003182A2A0130A002031CA102031CA202E5
:10045000031CA30203138316C101C201C301C4011B
:100460006A083002031D3E2A69082F02031D3E2A36
:1004700068082E02031D3E2A67082D02031C832AEA
:10048000AD01AE01AF01B001CB0A0319CC0A0319CB
:10049000CD0A0319CE0A031783124A080319602AEA
:1004A000031383164708480449044A04031D5F2ABE
:1004B0000030A0180130F1007108031D602A832A62
:1004C00003138316003020190130F1007109F00088
:1004D00000307018043020060439A0066D23003067
:1004E000831620190130F1007109F00000307018F6
:1004F000043020060439A0066D2383166F08013AE4
:10050000031D832A77230317831217080313831607
:100510003402031DA12A031783121608031383163E
:100520003302031DA12A0317831215080313831630
:100530003202031DA12A0317831214080313831622
:100540003102031CE62AB101B201B301B401D50A9C
:100550000319D60A0319D70A0319D80A03178312F5
:100560004B080319C32A031383165108520453047A
:100570005404031DC22A0030A1180130F100710893
:10058000031DC32AE62A0313831600302119013004
:10059000F1007109F00000307018043021060439B0
:1005A000A1066D230030831621190130F100710975
:1005B000F00000307018043021060439A1066D23C4
:1005C00083166F08023A031DE62A77230317831266
:1005D0002308031383163802031D042B0317831209
:1005E0002208031383163702031D042B03178312FB
:1005F0002108031383163602031D042B03178312ED
:100600002008031383163502031C4B2BB501B601DA
:10061000B701B801DF0A0319E00A0319E10A031957
:10062000E20A031783124C080319292B03138316BC
:100630005B085C045D045E04031D262B00308312FE
:1006400087180130F1007108031D292B0313831251
:100650004B2B03138312003007190130F10071098D
:10066000F0000030701804300706043987066D2347
:10067000003007190130F1007109F00000307018E6
:1006800004300706043987066D2383166F08033A82
:10069000031D4B2B772303138316031783124A087A
:1006A00003195D2B4B0803195D2B4C0803195D2BB7
:1006B000972301300317A800A90103138C10031717
:1006C0006008F1005F08F0004F088A004D088400C0
:1006D0004E0E8300FF0E7F0E0900031383162008C1
:1006E00083128500831621088312890008000313F2
:1006F0008316A20A0319A30A0319A40A0319A50A57
:1007000029082502031D8E2B28082402031D8E2B89
:1007100027082302031D8E2B26082202031C962B7A
:100720000130AA00A201A301A401A501080003133E
:10073000831212110800013003138312FA00FA0B1E
:100740009F2B00000800243003138312FB00FF30AE
:10075000FA00FB0BAC2BAF2BFA0BAC2BA92B9E306A
:10076000FA00FA0BB12B0800533003138312FA007E
:10077000FA0BB82B0800031783122A0884008001A3
:100780005E080319C32BDE1B80175E1B0017DE1AE1
:1007900080165E1A0016DE1980155E190015DE1827
:1007A00080145E1800142B08840000162C0803190E
:1007B000DA2B001200179B23001303172C080319D0
:1007C000E32BA323E62B03138312B42308000317A0
:1007D0008312AC015B08DE00BB2301300317AC00C1
:1007E0000800031783122E088A002F0882000800D1
:1007F0000A2C803003178312DB001D2CC030DB0075
:100800001D2C9430DB001D2CD430DB001D2C8030DF
:10081000DB001D2C031783125B08013A0319F92B27
:100820005B08023A0319FE2B5B08033A0319012CFB
:100830005B08043A0319042C072C5C03F0005B08E6
:10084000F0077008DB007008DE00BB230317AC0163
:100850005D08DE00BB2301300317AC000800003048
:100860000313831698180130F1007108003A031D34
:100870003B2C00002F2C031783125B0803139900F5
:100880000800031383122230FC00F801F901FA0179
:10089000FB01FC030319772C0310FB0CFA0CF90C79
:1008A000F80CF30CF20CF10CF00C031C492CFC03BB
:1008B0000319692C7408F80775080318750FF907F0
:1008C00076080318760FFA0777080318770FFB07E7
:1008D0004D2C7408F80775080318750FF90776088A
:1008E0000318760FFA0777080318770FFB0708003D
:1008F000A323A323A32303175708AA0057088400A0
:10090000841780015608AB005608840080128417B3
:1009100000128012001384130130AC003030DE006E
:10092000BB2330300317DE00BB2330300317DE005B
:10093000BB2338300317DE00BB2308300317DE006B
:10094000BB2301300317DE00BB2306300317DE0094
:10095000BB230C300317DE00BB2308004030031715
:100960008312DE00BB2304300317DB00E7230E30C5
:10097000DB00E7231530DB00E7230430DB00E7234F
:100980000430DB00E7230430DB00E7230430DB0026
:10099000E723DB01E723DB01E7230430DB00E72368
:1009A0000430DB00E7230430DB00E7230430DB0006
:1009B000E7231530DB00E7230E30DB00E7230430AC
:1009C000DB00E7231F30DB00E7231130DB00E723E8
:1009D0001130DB00E7231130DB00E7231130DB00AF
:1009E000E7231130DB00E7231130DB00E7231F3062
:1009F000DB00E7231F30DB00E7231F30DB00E723AA
:100A00001F30DB00E7231F30DB00E7231F30DB0054
:100A1000E7231F30DB00E7231F30DB00E7231F3015
:100A2000DB00E7230230DE00BB230800031783123C
:100A3000D90159085607F20059085707F00058081D
:100A40000318013FF1007008AF007108AE000A08FA
:100A5000AD00F123F0002D088A00720884007008B0
:100A600080005908F000D90A700856078400000871
:100A7000F0007008031D192D0800523465346134EC
:100A8000643479340034080020340034080003173B
:100A900083125608D8005808F100D80A5708840075
:100AA000D70A0008F00071088400700880007108FF
:100AB00084000008F0007008031D4B2D5608F0005C
:100AC000080003178312D901580884000008DA00CF
:100AD0005A0803197D2D5608DB0059085707DC001A
:100AE0005908580784000008DD00F823D90A59087E
:100AF000580784000008DA00682D080003178312E5
:100B0000D9015908003A0319A32D01305902F00008
:100B1000F101031CF103FF30D91F0030F107570822
:100B2000F00758080318013FF1077008AF0071087B
:100B3000AE000A08AD00F123F2002D088A00720809
:100B40000A3A0319C12D5908560784000008F3001A
:100B500059085707F00058080318013FF1007008C2
:100B6000AF007108AE000A08AD00F123F2002D08B5
:100B70008A00730872060319BF2DF0010800D90A14
:100B8000812D0130F0000800613478346934733409
:100B9000313420346F346E340A34003408000130AC
:100BA00003178312DE00BB2301300317DB00033081
:100BB000DC003130DD00F8230130DB000830DC00E0
:100BC0003230DD00F8230130DB000D30DC00333043
:100BD000DD00F8230230DB000230DC000313831653
:100BE000A01CF52D0330F000F72D0230F000700846
:100BF00003178312DD00F8230230DB000430DC0031
:100C000003138316201C072E0130F000082EF0017C
:100C1000700803178312DD00F8230230DB00073071
:100C2000DC0003138316A11C182E0330F0001A2ECB
:100C30000230F000700803178312DD00F823023041
:100C4000DB000930DC0003138316211C2A2E01303F
:100C5000F0002B2EF001700803178312DD00F8233B
:100C60000230DB000C30DC000313871C3A2E03300B
:100C7000F0003C2E0230F00070080317DD00F8236E
:100C80000230DB000E30DC000313071C4A2E01305B
:100C9000F0004B2EF00170080317DD00F82302303E
:100CA000B000080003178312D801D901580856076D
:100CB000F00057080318013F5907F1007008AF0012
:100CC0007108AE000A08AD00F123F2002D088A0079
:100CD00072080A3A0319842E58085607F00057087C
:100CE0000318013F5907F1007008AF007108AE000A
:100CF0000A08AD00F123DB002D088A002F2403171A
:100D0000D80A0319D90A562E0D30DB002F240A30D9
:100D10000317DB002F2408004F344B340A3400340F
:100D200008006134783469347334313420346F34DA
:100D3000663466340A340034080061347834693427
:100D40007334313420342B340A34003408006134D5
:100D5000783469347334313420342D340A34003417
:100D600008006134783469347334323420346F3499
:100D70006E340A34003408000A3400340800FF3F9F
:100D8000FF3FFF3FFF3FFF3FFF3FFF3FFF3FFF3F73
:100D9000FF3FFF3FFF3FFF3FFF3FFF3FFF3FFF3F63
:100DA000FF3FFF3FFF3FFF3FFF3FFF3FFF3FFF3F53
:100DB000FF3FFF3FFF3FFF3FFF3FFF3FFF3FFF3F43
:101000006134783469347334313420347334743453
:101010006534703473342034733477346934743401
:101020006334683431340A3400340800613478346D
:101030006934733431342034733474346534703427
:1010400073342034733477346934743463346834DB
:1010500032340A340034080003178312D9015908C6
:10106000003A03194A2859085707F000580803188E
:10107000013FF1007008AF007108AE000A08AD0032
:101080008A11F1238A15F2002D088A0072080A3AA3
:1010900003196A285908560784000008F300590804
:1010A0005707F00058080318013FF1007008AF001F
:1010B0007108AE000A08AD008A11F1238A15F2000A
:1010C0002D088A007308720603196828F0010800C9
:1010D000D90A2F280130F0000800613478346934CF
:1010E000733431342034733474346534703473346D
:1010F00020340A340034080003178312B101B2010E
:10110000B301B4015608B5005708B6008030360662
:10111000F000803038067002031D90283708350231
:101120000318C8283108F0003208F1003308F20033
:101130003408F3000A30F400F501F601F7018A11D2
:1011400041248A1503173508203F84000008F40065
:101150003030F402F501031CF5037408B100750882
:10116000B2000030B21BFF30B300B4007008B1070A
:1011700071080318710FB20772080318720FB307D2
:1011800073080318730FB407B50A0319B60A862843
:101190003108F0003208F1003308F2003408F3009F
:1011A0000800613478346934733431342034703455
:1011B0006534723469346F34643420347334743475
:1011C00061347234743420340A34003408006134D9
:1011D0007834693473343134203470346534723483
:1011E00069346F346434203465346E3464342034AC
:1011F0000A3400340800613478346934733431348B
:10120000203470346534723469346F34643420347B
:101210007734613472346D347534703420340A3468
:101220000034080061347834693473343134203444
:1012300070346534723469346F34643420340A3461
:101240000034080061347834693473343234203423
:101250006F34663466340A340034080061347834FC
:1012600069347334323420342B340A3400340800A7
:101270006134783469347334323420342D340A3490
:1012800000340800613478346934733432342034E3
:101290007334743465347034733420347334773475
:1012A000693474346334683431340A3400340800E7
:1012B00061347834693473343234203473347434A0
:1012C000653470347334203473347734693474344F
:1012D0006334683432340A340034080061347834BA
:1012E0006934733432342034733474346534703474
:1012F000733420340A34003408006134783469349B
:1013000073343234203470346534723469346F3459
:10131000643420347334743461347234743420345B
:101320000A34003408006134783469347334323458
:10133000203470346534723469346F34643420344A
:1013400065346E34643420340A3400340800613467
:101350007834693473343234203470346534723400
:1013600069346F34643420347734613472346D34CA
:101370007534703420340A34003408006134783411
:1013800069347334323420347034653472346934DF
:101390006F34643420340A34003408006134783403
:1013A00069347334333420346F346E340A34003487
:1013B00008006134783469347334333420346F3442
:1013C000663466340A340034080061347834693491
:1013D0007334333420342B340A340034080061343D
:1013E000783469347334333420342D340A3400347F
:1013F00008006134783469347334333420347334FE
:10140000743465347034733420347334773469340D
:1014100074346334683431340A340034080061347D
:101420007834693473343334203473347434653429
:1014300070347334203473347734693474346334DF
:10144000683432340A340034080061347834693442
:1014500073343334203473347434653470347334F7
:1014600020340A3400340800613478346934733429
:101470003334203470346534723469346F346434F6
:1014800020347334743461347234743420340A3444
:1014900000340800613478346934733433342034D0
:1014A00070346534723469346F3464342034653494
:1014B0006E34643420340A340034080061347834E3
:1014C000693473343334203470346534723469349D
:1014D0006F34643420347734613472346D3475344D
:1014E000703420340A3400340800613478346934AC
:1014F00073343334203470346534723469346F3467
:10150000643420340A34003408000830031783128E
:10151000D6000630D7008A1178248A150C300317BC
:10152000DE008A11BB238A158A11AE248A15503039
:101530000317D6003D30D7000530D8008A11162594
:101540008A156030D6004430D7000530D8008A11A3
:1015500016258A150800013003178312DE008A1150
:10156000BB238A1540300317D6005030D7008A11AC
:1015700047258A150130D6000130D7004030D80009
:101580008A1161258A154030D6006030D7008A1153
:1015900047258A150230D6000130D7004030D800E8
:1015A0008A1161258A150130B000080023342334E4
:1015B0002334233423342334233423342334233473
:1015C0002334233423342334233423342334233463
:1015D0002334233423342334233423342334233453
:1015E0002334233423342334233423342334233443
:1015F0002334233423342334233423342334233433
:1016000023340A34003408002334203420342034B6
:10161000203420342034203420342034203420342A
:10162000203420342034203420342034203420341A
:10163000203420342034203420342034203420340A
:1016400020342034203420342034203420342034FA
:1016500020342034203420342034203423340A34FD
:101660000034080023342034203420344D347534C1
:101670006C34743469342D344134783469347334BF
:1016800020345334743465347034703465347234B7
:1016900020344D346F3474346F3472342034433416
:1016A0006F346E34743472346F346C346C3465342B
:1016B000723420342034203423340A3400340800B7
:1016C0002334203420342034203420342034203477
:1016D000203420342034203420342034203420346A
:1016E000203420342034203420342034203420345A
:1016F000203420342034203420342034203420344A
:101700002034203420342034203420342034203439
:101710002034203423340A340034080023342334A2
:101720002334233423342334233423342334233401
:1017300023342334233423342334233423342334F1
:1017400023342334233423342334233423342334E1
:1017500023342334233423342334233423342334D1
:1017600023342334233423342334233423342334C1
:1017700023340A34003408003E3003178312DB00A0
:101780008A112F248A153E300317DB008A112F247B
:101790008A15080003138316981690308312980058
:1017A0008316871707130313831283128C1EDC2BF7
:1017B0001A080317D500D32B0317831208007634B9
:1017C00065347234733469346F346E340A340034DF
:1017D000080032342E3430340A34003408006734C0
:1017E0006F340A340034080003138316AD01AE01D0
:1017F000AF01B001B101B201B301B401B501B6014D
:10180000B701B801CB01CC01CD01CE01D501D60184
:10181000D701D801DF01E001E101E201B901BA011C
:10182000BB01BC01BD01BE01BF01C001C101C201BC
:10183000C301C401AB01AC010317831239080313C0
:101840008316E700031783123A0803138316E80090
:10185000031783123B0803138316E900031783124F
:101860003C0803138316EA00031783123D08940013
:101870003E0895003F089600400897004108A000E8
:101880004208A1004308A2004408A3000B178B17CD
:10189000031383168C1449308312920003174508F2
:1018A000031383169200AA01A201A301A401A501BA
:1018B000013003178312A9000313121508007334B3
:1018C00074346F3470340A34003408007334633471
:1018D0007234653465346E34203431340A34003463
:1018E0000800733463347234653465346E342034E4
:1018F00032340A3400340800703469346E3467348A
:101900000A340034080063346F346D346D34753438
:101910006E34693463346134743469346F346E34D2
:10192000203474346534733474340A340034080059
:1019300055346E3464346534663469346E346534D9
:101940006434203463346F346D346D3461346E34F8
:1019500064340A34003408006C3463346434313441
:1019600020340A34003408006C3463346434323474
:1019700020340A340034080074347234613463341F
:1019800065342034613478346934733431340A3442
:1019900000340800743472346134633465342034A4
:1019A000613478346934733432340A3400340800D2
:1019B000743472346134633465342034613478347F
:1019C0006934733433340A340034080074347234A4
:1019D00061346334653420346F34663466340A34D9
:1019E0000034080074347234613463346534203454
:1019F00073346B346934703420340A340034080092
:101A000070347234323420340A3400340800031342
:101A10008316860103308800850189018701A010A3
:101A2000A110831287108316201021108312071033
:101A3000831620152115831207158A116D238A1527
:101A40000230FC00FF30FB00FF30FA00FC0B292DB8
:101A5000302DFB0B2C2D2F2DFA0B2C2D292D262D67
:101A60004630FB00FF30FA00FB0B372D3A2DFA0B06
:101A7000372D342DCF30FA00FA0B3C2D0000852293
:101A8000AB2204300313831699001815CA230313DD
:101A90008712BC300317D6000630D7008A115226B1
:101AA0008A15BC300317D6000630D7008A1152269B
:101AB0008A15D6300317D6000A30D7008A1152266D
:101AC0008A1504300317D6000B30D7008A1152262E
:101AD0008A1532300317D6000B30D7008A115226F0
:101AE0008A1560300317D6000B30D7008A115226B2
:101AF0008A158E300317D6000B30D7008A11522674
:101B00008A15BC300317D6000630D7008A1152263A
:101B10008A15BC2308000030031383128C1A01308D
:101B2000F1007108F0000800031383121A0803176C
:101B3000D0000313981C9E2D181218160317500876
:101B4000F00008000317831250081F3C0318AF2D44
:101B50007F3050020318AF2D0130F0000800F00173
:101B600008005434613473346B34203463346F347C
:101B70006D3470346C3465347434653464340A34D0
:101B800000340800003003138316EF000030AA0071
:101B90006430A6000030A7000030A8000030A90083
:101BA0000030A2000030A3000030A4000030A500E7
:101BB000003003178312C6000030A9000030A800CF
:101BC0000130B000003003138316AD000030AE00CA
:101BD0000030AF000030B0000030B1000030B20083
:101BE0000030B3000030B4000030B5000030B60063
:101BF0000030B7000030B8000030CB000030CC001F
:101C00000030CD000030CE000030D5000030D600CE
:101C10000030D7000030D8000030DF000030E00096
:101C20000030E1000030E2000030C7000030C800A2
:101C30000030C9000030CA000030D1000030D200AE
:101C40000030D3000030D4000030DB000030DC0076
:101C50000030DD000030DE00053003178312B900CC
:101C60000030BA000030BB000030BC000530BD00C1
:101C70000030BE000030BF000030C0000530C100A1
:101C80000030C2000030C3000030C4000530031330
:101C90008316EB000030EC000030ED000030EE0069
:101CA000053003178312A4000030A5000030A60001
:101CB0000030A700003003138316E7000030E8006F
:101CC0000030E9000030EA0000300317831294006E
:101CD0000030950000309600003097000030A000E2
:101CE0000030A1000030A2000030A3003230031306
:101CF0008316E3000030E4000030E5000030E60029
:101D000032300317831290000030910000309200AF
:101D10000030930032309C0000309D0000309E0067
:101D200000309F00003003138316C5000030C6004A
:101D30000030CF000030D0000030D9000030DA0091
:101D40000030AB000030AC00003003178312B70046
:101D50000030B8000F30C5000800C2250730FC0075
:101D6000FF30FB00FF30FA00FC0BB72EBE2EFB0B42
:101D7000BA2EBD2EFA0BBA2EB72EB42E6030FB0051
:101D8000FF30FA00FB0BC52EC82EFA0BC52EC22E53
:101D90001430FA00FA0BCA2E0725031383128B2581
:101DA000700803191F2F94257008C9007008DB0004
:101DB0008A112F248A1503174908D000A22570081C
:101DC0000319F72E3708203FF000700884004908F7
:101DD000800080303806F00080307002031DF22E43
:101DE0001F3037020318F72EB70A0319B80A49083B
:101DF0000D3A031D0F2F3708203FF00070088400B4
:101E00000A3080000A30DB008A112F248A150A1656
:101E100000200A1203178312B701B801BC23031371
:101E20008312003003138312871A0130F100710905
:101E3000F00000307018203007062039870603179D
:101E4000831228080319362FBC30D6000630D7007D
:101E50008A1152268A15B1300317D6000D30D700EB
:101E60008A1152268A15BC230317A801031383166F
:101E70002A080319442F403003178312DB008A110C
:101E80002F248A158316AA01CD2E452FFF3FFF3F31
:101E9000FF3FFF3FFF3FFF3FFF3FFF3FFF3FFF3F52
:101EA000FF3FFF3FFF3FFF3FFF3FFF3FFF3FFF3F42
:101EB000FF3FFF3FFF3FFF3FFF3FFF3FFF3FFF3F32
:101EC000FF3FFF3FFF3FFF3FFF3FFF3FFF3FFF3F22
:101ED000FF3FFF3FFF3FFF3FFF3FFF3FFF3FFF3F12
:101EE000FF3FFF3FFF3FFF3FFF3FFF3FFF3FFF3F02
:101EF000FF3FFF3FFF3FFF3FFF3FFF3FFF3FFF3FF2
:101F0000FF3FFF3FFF3FFF3FFF3FFF3FFF3FFF3FE1
:101F1000FF3FFF3FFF3FFF3FFF3FFF3FFF3FFF3FD1
:101F2000FF3FFF3FFF3FFF3FFF3FFF3FFF3FFF3FC1
:101F3000FF3FFF3FFF3FFF3FFF3FFF3FFF3FFF3FB1
:101F4000FF3FFF3FFF3FFF3FFF3FFF3FFF3FFF3FA1
:101F5000FF3FFF3FFF3FFF3FFF3FFF3FFF3FFF3F91
:101F6000FF3FFF3FFF3FFF3FFF3FFF3FFF3FFF3F81
:101F7000FF3FFF3FFF3FFF3FFF3FFF3FFF3FFF3F71
:101F8000FF3FFF3FFF3FFF3FFF3FFF3FFF3FFF3F61
:101F9000FF3FFF3FFF3FFF3FFF3FFF3FFF3FFF3F51
:101FA000FF3FFF3FFF3FFF3FFF3FFF3FFF3FFF3F41
:101FB000FF3FFF3FFF3FFF3FFF3FFF3FFF3FFF3F31
:101FC000FF3FFF3FFF3FFF3FFF3FFF3FFF3FFF3F21
:101FD000FF3FFF3FFF3FFF3FFF3FFF3FFF3FFF3F11
:101FE000FF3FFF3FFF3FFF3FFF3FFF3FFF3FFF3F01
:101FF000FF3FFF3FFF3FFF3FFF3FFF3FFF3FFF3FF1
:10200000203003178312D600C430D7000530D80023
:102010008A110A127E250A16700803192A2803134A
:102020008316A0148A110A126D230A1603173008AA
:10203000023A031D1F288A110A12CF250A168C3076
:10204000D6000630D7008A110A1252260A1601302D
:10205000F000080020300317D6009130D70006307A
:10206000D8008A110A127E250A167008031953280F
:1020700003138316A0108A110A126D230A16031780
:102080003008023A031D48288A110A12CF250A1681
:102090008C30D6000630D7008A110A1252260A1652
:1020A0000130F000080020300317D6009D30D70023
:1020B0000630D8008A110A127E250A167008031904
:1020C0007C280313831620108A110A126D230A1626
:1020D00003173008023A031D71288A110A12CF250E
:1020E0000A168C30D6000630D7008A110A12522602
:1020F0000A160130F000080020300317D600A73080
:10210000D7000630D8008A110A127E250A167008F8
:102110000319A5280313831620148A110A126D23AC
:102120000A1603173008023A031D9A288A110A1268
:10213000CF250A168C30D6000630D7008A110A1235
:1021400052260A160130F000080020300317D6008E
:102150000030D7000830D8008A110A127E250A16EE
:1021600070080319CA28013003138316C700C80179
:10217000C901CA010130C500C6018C3003178312A2
:10218000D6000630D7008A110A1252260A160130EC
:10219000F000080020300317D6001630D7000830B2
:1021A000D8008A110A127E250A1670080319EF2832
:1021B000013003138316C700C801C901CA01C50154
:1021C0000130C6008C3003178312D6000630D700CA
:1021D0008A110A1252260A160130F0000800203037
:1021E0000317D6006D30D7000830D8008A150A12C0
:1021F0002C208A110A167008031920290C30D600E9
:102200000030D7008A150A127C208A110A1670083D
:1022100003138316C7007108C8007208C900730849
:10222000CA00C501C6018C3003178312D6000630E0
:10223000D7008A110A1252260A160130F00008004F
:1022400020300317D600D130D7000830D8008A15C7
:102250000A122C208A110A16700803195729133004
:10226000D6000030D7008A150A127C208A110A167F
:102270007008B9007108BA007208BB007308BC008E
:10228000700803138316E7007108E8007208E9007C
:102290007308EA008C3003178312D6000630D7008B
:1022A0008A110A1252260A160130F0000800203066
:1022B0000317D600E730D7000830D8008A150A1275
:1022C0002C208A110A167008031986291130D600AD
:1022D0000030D7008A150A127C208A110A1670086D
:1022E00003138316EB007108EC007208ED0073080D
:1022F000EE008C3003178312D6000630D7008A1107
:102300000A1252260A160130F00008002030031786
:10231000D600FB30D7000830D8008A150A122C20CE
:102320008A110A1670080319B5291430D600003036
:10233000D7008A150A127C208A110A167008031326
:102340008316E3007108E4007208E5007308E600F4
:102350008C3003178312D6000630D7008A110A1278
:1023600052260A160130F000080020300317D6006C
:102370001230D7000930D8008A150A122C208A1191
:102380000A1670080319EC290D30D6000030D7006A
:102390008A150A127C208A110A167008B900710881
:1023A000BA007208BB007308BC00700803138316E0
:1023B000EB007108EC007208ED007308EE008C3041
:1023C00003178312D6000630D7008A110A1252264C
:1023D0000A160130F000080020300317D600B13093
:1023E000D7000630D8008A110A127E250A16700816
:1023F0000319152A03138316A1148A110A126D23D7
:102400000A1603173008023A031D0A2A8A110A1213
:10241000CF250A168C30D6000630D7008A110A1252
:1024200052260A160130F000080020300317D600AB
:102430002230D7000930D8008A110A127E250A16E8
:10244000700803193E2A03138316A1108A110A1279
:102450006D230A1603173008023A031D332A8A1126
:102460000A12CF250A168C30D6000630D7008A1102
:102470000A1252260A160130F00008002030031715
:10248000D6002E30D7000930D8008A110A127E25D6
:102490000A1670080319672A0313831621108A117C
:1024A0000A126D230A1603173008023A031D5C2A2C
:1024B0008A110A12CF250A168C30D6000630D700B2
:1024C0008A110A1252260A160130F0000800203044
:1024D0000317D6003830D7000930D8008A110A1205
:1024E0007E250A1670080319902A031383162114F7
:1024F0008A110A126D230A1603173008023A031DC7
:10250000852A8A110A12CF250A168C30D600063089
:10251000D7008A110A1252260A160130F00008006C
:1025200020300317D6004230D7000930D8008A1176
:102530000A127E250A1670080319B52A0130031302
:102540008316D100D201D301D4010130CF00D001D4
:102550008C3003178312D6000630D7008A110A1276
:1025600052260A160130F000080020300317D6006A
:102570005830D7000930D8008A110A127E250A1671
:1025800070080319DA2A013003138316D100D2012F
:10259000D301D401CF010130D0008C300317831256
:1025A000D6000630D7008A110A1252260A160130C8
:1025B000F000080020300317D6006E30D700093035
:1025C000D8008A150A122C208A110A1670080319DD
:1025D0000B2B0C30D6000030D7008A150A127C2055
:1025E0008A110A16700803138316D1007108D200ED
:1025F0007208D3007308D400CF01D0018C300317C8
:102600008312D6000630D7008A110A1252260A1603
:102610000130F000080020300317D6007D30D700CD
:102620000930D8008A150A122C208A110A1670085F
:102630000319362B1330D6000030D7008A150A1242
:102640007C208A110A167008BD007108BE0072084D
:10265000BF007308C0008C30D6000630D7008A1146
:102660000A1252260A160130F00008002030031723
:10267000D6009330D7000930D8008A150A122C20D2
:102680008A110A1670080319612B1130D600003028
:10269000D7008A150A127C208A110A167008980041
:1026A0007108990072089A0073089B008C30D6005C
:1026B0000630D7008A110A1252260A160130F0009D
:1026C000080020300317D600A730D7000930D80003
:1026D0008A150A122C208A110A16700803198C2BED
:1026E0001430D6000030D7008A150A127C208A11D7
:1026F0000A16700890007108910072089200730821
:1027000093008C30D6000630D7008A110A12522668
:102710000A160130F000080020300317D600BE3042
:10272000D7000930D8008A150A122C208A110A16FF
:1027300070080319C72B0D30D6000030D7008A155A
:102740000A127C208A110A167008BD007108BE00AA
:102750007208BF007308C0007008980071089900E3
:1027600072089A0073089B00700894007108950025
:1027700072089600730897008C30D6000630D70098
:102780008A110A1252260A160130F0000800203081
:102790000317D600CE30D7000930D8008A110A12AC
:1027A0007E250A1670080319EF2B031387148A116C
:1027B0000A126D230A1603173008023A031DE42B90
:1027C0008A110A12CF250A168C30D6000630D7009F
:1027D0008A110A1252260A160130F0000800203031
:1027E0000317D600D930D7000930D8008A110A1251
:1027F0007E250A1670080319172C031387108A11F7
:102800000A126D230A1603173008023A031D0C2C16
:102810008A110A12CF250A168C30D6000630D7004E
:102820008A110A1252260A160130F00008002030E0
:102830000317D600E530D7000930D8008A110A12F4
:102840007E250A16700803193F2C031307108A11FE
:102850000A126D230A1603173008023A031D342C9E
:102860008A110A12CF250A168C30D6000630D700FE
:102870008A110A1252260A160130F0000800203090
:102880000317D600EF30D7000930D8008A110A129A
:102890007E250A1670080319672C031307148A1182
:1028A0000A126D230A1603173008023A031D5C2C26
:1028B0008A110A12CF250A168C30D6000630D700AE
:1028C0008A110A1252260A160130F0000800203040
:1028D0000317D600F930D7000930D8008A110A1240
:1028E0007E250A16700803198C2C013003138316F9
:1028F000DB00DC01DD01DE010130D900DA018C30C2
:1029000003178312D6000630D7008A110A12522606
:102910000A160130F000080020300317D6000F30EF
:10292000D7000A30D8008A110A127E250A167008CC
:102930000319B12C013003138316DB00DC01DD0128
:10294000DE01D9010130DA008C3003178312D60082
:102950000630D7008A110A1252260A160130F000FA
:10296000080020300317D6002530D7000A30D800E1
:102970008A150A122C208A110A1670080319E22CF3
:102980000C30D6000030D7008A150A127C208A113C
:102990000A16700803138316DB007108DC00720846
:1029A000DD007308DE00D901DA018C3003178312D1
:1029B000D6000630D7008A110A1252260A160130B4
:1029C000F000080020300317D6003430D7000A305A
:1029D000D8008A150A122C208A110A1670080319C9
:1029E0001D2D1330D6000030D7008A150A127C2026
:1029F0008A110A167008A4007108A5007208A600C2
:102A00007308A7007008C1007108C2007208C300F3
:102A10007308C4007008A0007108A1007208A20029
:102A20007308A3008C30D6000630D7008A110A1232
:102A300052260A160130F000080020300317D60095
:102A40004A30D7000A30D8008A150A122C208A1181
:102A50000A1670080319482D1130D6000030D7002F
:102A60008A150A127C208A110A167008A4007108BF
:102A7000A5007208A6007308A7008C30D6000630A7
:102A8000D7008A110A1252260A160130F0000800F7
:102A900020300317D6005E30D7000A30D8008A15E0
:102AA0000A122C208A110A1670080319732D14308B
:102AB000D6000030D7008A150A127C208A110A1627
:102AC00070089C0071089D0072089E0073089F00AA
:102AD0008C30D6000630D7008A110A1252260A1608
:102AE0000130F000080020300317D6007530D70001
:102AF0000A30D8008A150A122C208A110A1670088A
:102B00000319A62D0D30D6000030D7008A150A1201
:102B10007C208A110A167008C1007108C200720870
:102B2000C3007308C4007008A4007108A5007208EF
:102B3000A6007308A7008C30D6000630D7008A1193
:102B40000A1252260A160130F000080003138312FD
:102B5000F0010800FF3FFF3FFF3FFF3FFF3FFF3F08
:102B6000FF3FFF3FFF3FFF3FFF3FFF3FFF3FFF3F75
:102B7000FF3FFF3FFF3FFF3FFF3FFF3FFF3FFF3F65
:102B8000FF3FFF3FFF3FFF3FFF3FFF3FFF3FFF3F55
:102B9000FF3FFF3FFF3FFF3FFF3FFF3FFF3FFF3F45
:103000008A1100208A15700803190728080020304B
:103010000317D600DF30D7000B30D8008A110A1210
:103020007E258A150A16700803192028E930D60073
:103030000B30D7008A110A1252268A150A16080088
:1030400020300317D600EF30D7000B30D8008A119C
:103050000A127E258A150A16700803193D280A12DD
:10306000F4230A168C300317D6000630D7008A11D5
:103070000A1252268A150A16080020300317D600B5
:103080005F30D7000C30D8008A110A127E258A15CD
:103090000A16700803195C288A110A1297238A15E8
:1030A0000A168C300317D6000630D7008A110A1290
:1030B00052268A150A16080020300317D6006630FB
:1030C000D7000C30D8008A110A127E258A150A16FC
:1030D0007008031978280A12AB220A168C30D60021
:1030E0000630D7008A110A1252268A150A160800DD
:1030F00020300317D6007130D7000C30D8008A1169
:103100000A127E258A150A167008031996288A1154
:103110000A12CF258A150A168C30D6000630D70041
:103120008A110A1252268A150A160800203003173F
:10313000D6007C30D7000C30D8008A110A127E25C8
:103140008A150A1670080319AF288C30D60006308D
:10315000D7008A110A1252268A150A160800203052
:103160000317D6008330D7000C30D8008A110A121A
:103170007E258A150A1670080319D9284608013CCD
:103180000318CD28C6019830D6000C30D7008A111C
:103190000A1252268A150A16D8280317C60A8C3036
:1031A000D6000630D7008A110A1252268A150A164E
:1031B000080020300317D600AC30D7000C30D80000
:1031C0000A122C200A16700803193C290530C70082
:1031D0000030C8004708203F84000008F40074084D
:1031E0000A3A03191E2905304702F4000030031C77
:1031F000013F4802F50080307506F0008030700213
:10320000031D04291030740203181E2905304702DB
:10321000F0000030031C013F4802F1007008503FED
:10322000F4004708203F84000008F0007408840080
:1032300070088000C70A0319C80AEA280530470247
:10324000F0000030031C013F4802F1005030F0074D
:103250007008840080013008013A031D32290A12E7
:10326000AB220A168C30D6000630D7008A110A121B
:1032700052268A150A16080020300317D600B430EB
:10328000D7000C30D8000A122C200A167008031937
:103290009F290530C7000030C8004708203F840040
:1032A0000008F40074080A3A03198129053047021E
:1032B000F4000030031C013F4802F5008030750621
:1032C000F00080307002031D67291030740203186B
:1032D000812905304702F0000030031C013F4802FD
:1032E000F1007008603FF4004708203F84000008A8
:1032F000F0007408840070088000C70A0319C80A27
:103300004D2905304702F0000030031C013F480200
:10331000F1006030F0077008840080013008013A45
:10332000031D95290A12AB220A168C30D6000630EE
:10333000D7008A110A1252268A150A160800203070
:103340000317D600BC30D7000C30D8000A122C204E
:103350000A1670080319BC29013003138316EF0005
:103360008C3003178312D6000630D7008A110A1258
:1033700052268A150A16080020300317D600CA30D4
:10338000D7000C30D8000A122C200A167008031936
:10339000D929023003138316EF008C3003178312F0
:1033A000D6000630D7008A110A1252268A150A164C
:1033B000080020300317D600D830D7000C30D800D2
:1033C0000A122C200A1670080319F6290330031379
:1033D0008316EF008C3003178312D6000630D70017
:1033E0008A110A1252268A150A160800203003177D
:1033F000D600E630D7000C30D8000A122C200A166E
:1034000070080319122A03138316EF018C30031777
:103410008312D6000630D7008A110A1252268A1566
:103420000A16080020300317D600F230D7000C30FF
:10343000D8000A122C200A16700803193C2A0B30F7
:10344000D6000030D7000A127C200A167008031339
:103450008316A6007108A7007208A8007308A900C7
:103460008C3003178312D6000630D7008A110A1257
:1034700052268A150A16080020300317D60000309D
:10348000D7000D30D8000A122C200A167008031934
:103490005C2A0430D6000030D7000A127C200A16BD
:1034A0007008C5008C30D6000630D7008A110A1289
:1034B00052268A150A16080098300317D6000C30D9
:1034C000D7008A110A1252268A150A160800FF3FF1
:02400E007A3FF7
:00000001FF
